:10054B006E6F2072656365697665210D0A0049201F
:10055B00726563656976650D0A000D0A000000007F
:10056B000000000000000000000000000000000080
:01057B00007F
:0D06FF00EFD3940040077E6EDEFE1F80F3F7
:01070C0022CA
:100003007E00D3EF9400EE940040147D6E7C00EDEF
:0F0013001D70011CED4C70F7EF1F70E61E80E3AF
:0100220022BB
:1006C7007800E214F2E214F2E214F2E214F2E21415
:0406D700F2E214F245
:0106DB0022FC
:1006B100759850758920758780758DFA758BFAD27A
:0606C100ACD2AFD28E2284
:030023000206834F
:07068300C0D075D000C007D4
:0B068A00AF99C2988F993099FDC2997A
:05069500D007D0D032B7
:10064F00C2AC12011C6010F5993099FDC29974016A
:0A065F0029F9E43AFA80EBD2AC224C
:1001960078177C007DFE7BFF7A0579687E007F14E8
:1001A6001200F612071A1206B11206DC7F80120739
:1001B600317F4812073B7F3112073B7F3A12073BDC
:1001C6007F891207317F4812073B7F3212073B7F38
:1001D6003A12073B7FC41207317F4812073B7F3331
:1001E60012073B7F3A12073B782E74FEF208740022
:1001F600F2087401F27BFE7A0079021203667F83AD
:100206001207317802E275F00A842430FF12073BA8
:100216007802E275F00A84E5F02430FF12073B7F8E
:100226002012073B7801E275F00A842430FF12079A
:100236003B7801E275F00A84E5F02430FF12073BB3
:1002460012057C7BFF7A05794B12064F1B7A0079E3
:10025600171204E1EF60917F8C1207317818E224BF
:1002660030FF12073B7819E22430FF12073B7F204C
:1002760012073B7FC0120731781AE22430FF1207BB
:100286003B781BE22430FF12073B7FC71207317809
:100296001CE22430FF12073B781DE22430FF1207D0
:1002A6003B7F2012073B781EE22430FF12073B7883
:1002B6001FE22430FF12073B7BFF7A0579591206AD
:1002C6004F1B7A00791712064F0B7A0579651206CD
:0402D6004F0201EEE4
:0E06F000850B344310100185063443101001B1
:0B072600EFD394004004001F80F62277
:0C071A007F64120726C294D2B3C296225C
:0A05D400EBF208EAF208E9F2C2B304
:1005DE00E4FEEF339295EF25E0FFD296A297E43337
:0905EE004FFFC2960EEEB408E9BD
:0105F70022E1
:090669007D017F211206727F223F
:10067200C2B31205DEAC07AF051205DED2B3AF047A
:010682002255
:0C070D00C2B31205DEE4FF1205DED2B319
:0107190022BD
:02051900782F39
:10051B001205D4AD07E4FC7832E2FFECC39F501B0D
:10052B00E4FF1205DE782FE2FB08E2FA08E2F98C11
:0F053B0082758300EF1201740C80DCD2B3AF0520
:01054A00228E
:0904A6007BFE782F7405F27F2A19
:0204AF00782CA7
:1004B1001205D4AD07E4FC782FE2FFECC39F501B7B
:1004C100782CE2FB0808E2F92401F218E2FA340080
:0F04D100F212011CFF1205DE0C80DCD2B3AF0566
:0104E00022F9
:10057C00C2947A0079061204A61206691D7F251210
:10058C0006727D147F311206727D077F2612067269
:0E059C007D0F7F20120672D2947F8202072606
:0A04E100782BEBF208EAF208E9F2CA
:1004EB00E4FB7F0712070D8F20300618C294782B80
:1004FB00E2FB08E2FA08E2F978327414F27F611237
:0D050B0005197B01AD207F27120672AF039A
:0105180022C0
:1003F0007803EBF208EAF208E9F2C2947BFE7A0095
:10040000790B782F7405F27F301204AF7A00790BE4
:100410001204A67803E2FB08E2FA08E2F9782F74E6
:1004200014F27FA01204AF1206697D1A7F2412060F
:1004300072E4FD7F251206727D077F261206727D0B
:0D0440000E7F20120672D2947F0A0207265A
:1005AA00C2B68FA07F017E001205BBD2B57F057E41
:0105BA000040
:1005BB00D3EF9400EE9400400F7DC77C01DCFEDD91
:0805CB00FAEF1F70EB1E80E83F
:0105D3002205
:0A073100C2B5C2B71205AAC2B52274
:0A073B00C2B5D2B71205AAC2B5225A
:1006DC007F381207317F0C1207317F061207317FEA
:0406EC0001020731CF
:0D044D007811EDF208EBF208EAF208E9F28E
:10045A00EF24FE600A0470107811E2248080057887
:10046A0011E224C0FF120731E47816F27815E2FF90
:10047A0008E2FEC39F50247812E2FB08E2FA08E27F
:10048A00F98E82758300120135FF12073B7F0A7EBF
:0B049A00001205BB7816E204F280D1CE
:0104A5002234
:10063400ED5401FDEF540FFFED6004EF4440FFEF74
:0B0644004480FF120731AF0302073BA8
:03074500DFFE22B2
:1005F800D3EF9400EE940040147D6E7C00ED1D70E6
:0D060800011CED4C70F7EF1F70E61E80E343
:0106150022C2
:10069A00D2907F02120745C2907F1E7E001205F893
:0706AA00D2907F1E020745FC
:10061600E4FEFD3090FD7F08120745EE25E0FE3032
:0D06260090010E2090FD0DEDB408E8AF0628
:0106330022A4
:0A036600782BEBF208EAF208E9F246
:1003700012069A2090793090FD7F281207451206C8
:10038000167831EFF2120616A907120616AC0712FC
:100390000616AB071206167834EFF27F19120745DE
:1003A000E9FF7831E22FFFE433FEEC7583002FFF85
:1003B000E5833EFEEB2FFFE5833EFE7834E26F706F
:1003C00001EE702B7831E2FFAE0108EEF2AE04AD23
:1003D0000308EDF2782BE2FB08E2FA08E2F9EE12EC
:0F03E000016208E2FB08E2FA08E2F9EF1201629B
:0103EF0022EB
:030000000202DA1F
:0C02DA00787FE4F6D8FD75812002032136
:10002600E709F608DFFA8046E709F208DFFA803EBC
:1000360088828C83E709F0A3DFFA8032E309F608A9
:10004600DFFA8078E309F208DFFA807088828C8311
:10005600E309F0A3DFFA806489828A83E0A3F608C5
:10006600DFFA805889828A83E0A3F208DFFA804C9F
:1000760080D280FA80C680D4806980F28033801076
:1000860080A680EA809A80A880DA80E280CA8033DF
:1000960089828A83ECFAE493A3C8C582C8CCC58357
:1000A600CCF0A3C8C582C8CCC583CCDFE9DEE78027
:1000B6000D89828A83E493A3F608DFF9ECFAA9F0A6
:1000C600EDFB2289828A83ECFAE0A3C8C582C8CCFC
:1000D600C583CCF0A3C8C582C8CCC583CCDFEADE15
:1000E600E880DB89828A83E493A3F208DFF980CC77
:1000F60088F0EF60010E4E60C388F0ED2402B40470
:100106000050B9F582EB2402B4040050AF23234516
:06011600822390007673C5
:10011C00BB010689828A83E0225002E722BBFE02E1
:09012C00E32289828A83E4932214
:10013500BB010CE58229F582E5833AF583E022507F
:1001450006E92582F8E622BBFE06E92582F8E222C9
:0D015500E58229F582E5833AF583E49322E3
:10016200BB010689828A83F0225002F722BBFE017C
:02017200F32276
:10017400F8BB010DE58229F582E5833AF583E8F0C1
:10018400225006E92582C8F622BBFE05E92582C86D
:02019400F22255
:1002E600020196E493A3F8E493A34003F68001F297
:1002F60008DFF48029E493A3F85407240CC8C33319
:10030600C4540F4420C8834004F456800146F6DFE7
:10031600E4800B01020408102040809006F0E47E81
:10032600019360BCA3FF543F30E509541FFEE493DC
:10033600A360010ECF54C025E060A840B8E493A3A3
:10034600FAE493A3F8E493A3C8C582C8CAC583CACE
:10035600F0A3C8C582C8CAC583CADFE9DEE780BE86
:0106FE0000FB
:00000001FF
