:1004BA004F4B0D0A000D0A00492073656E640D0A40
:1004CA000000000000000000000000000000000022
:0504DA0000000000001D
:1004DF00E4FDFCC3ED9FEC9E50070DBD00010C80A9
:1004EF00F2E4FCFDC3ED9FEC9E50070DBD00010C27
:0204FF0080F289
:0105010022D7
:0D061100EFD3940040077E6EDEFE1F80F3E5
:01061E0022B9
:100003007E00D3EF9400EE940040147D6E7C00EDEF
:0F0013001D70011CED4C70F7EF1F70E61E80E3AF
:0100220022BB
:0C061F00151E151E151E151E151E151E9D
:01062B0022AC
:1005EC00759850758920758780758DFA758BFAD240
:0605FC00ACD2AFD28E224A
:030023000205A72C
:0705A700C0D075D000C007B1
:0B05AE00AF99C2988F993099FDC29957
:0505B900D007D0D03294
:10055A00C2AC12011C6010F5993099FDC299740160
:0A056A0029F9E43AFA80EBD2AC2242
:10016900E4F521F52278237C00FD7BFF7A0479CB25
:10017900FE7F141200F61206391205EC7B007A0094
:1001890079231203A37F707E171204DF753A007575
:100199003B00753C177B007A0079181202C1753A49
:1001A90000753B00753C197B007A00791A120332FD
:1001B9007BFF7A0479BA12055A752323E51875F07D
:1001C9000A84F524E51875F00A8485F025E5177584
:1001D900F00A84F526E51775F00A8485F027E51AF3
:1001E90075F00A84F528E51A75F00A8485F029E581
:1001F9001975F00A84F52AE51975F00A8485F02B3A
:100209007B007A0079231203A37B007A00792312F9
:10021900055A7BFF7A0479BF12055A7A0479C2120A
:0C022900055A7FE87E03120502020195D1
:0E060200050D3443101001050834431010019B
:0B064500EFD394004004001F80F62259
:0C0639007F64120645C294D2B3C2962220
:10058E00E4FEEF339295EF25E0FFD296A297E43387
:08059E004207C2960EBE08EAF6
:0105A6002232
:090574007D017F2112057D7F222B
:10057D00C2B312058EAC07AF0512058ED2B3AF0410
:01058D00224B
:0C062C00C2B312058EE4FF12058ED2B39B
:01063800229F
:06042D008B138A148915EF
:10043300C2B312058EAD07E4FCECC395165017E466
:10044300FF12058EAB13AA14A9158C82758300EFD6
:0A0453001201470C80E3D2B3AF059D
:01045D00227C
:0703F4007B00753E057F2A26
:0603FB008B3B8A3C893DAA
:10040100C2B312058EAD07E4FCECC3953E5018ABA8
:100411003B053DE53DAA3C7002053C14F912011C67
:0B042100FF12058E0C80E2D2B3AF0585
:01042C0022AD
:10045E00C2947A0079081203F41205741D7F2512D6
:10046E00057D7D147F3112057D7D077F2612057D6A
:0E047E007D0F7F2012057DD2947F82020645FD
:06048C008B1B8A1C891D78
:10049200E4FB7F0712062C8F20300612C294AB1B9E
:1004A200AA1CA91D7516147F6112042D7B01AD20B3
:0704B2007F2712057DAF0357
:0104B9002220
:1003A3008B378A388939C2947B007A00790D753E80
:1003B300057F301203FB7A00790D1203F4AB37AAE1
:1003C30038A939753E147FA01203FB1205747D1AF8
:1003D3007F2412057DE4FD7F2512057D7D077F26A1
:1003E30012057D7D0E7F2012057DD2947F0A0206C1
:0103F30045C4
:03065000DFFE22A8
:10050200D3EF9400EE940040147D6E7C00ED1D70DC
:0D051200011CED4C70F7EF1F70E61E80E33A
:01051F0022B9
:1005BE00D2907F02120650C2907F1E7E001205025C
:0705CE00D2907F1E020650CF
:1005D500D2917F02120650C2917F1E7E0012050243
:0705E500D2917F1E020650B7
:10052000E4FEFD3090FD7F08120650EE25E0FE301F
:0C05300090010E2090FD0DBD08E9AF0603
:01053C00229C
:10053D00E4FEFD3091FD7F08120650EE25E0FE3001
:0C054D0091010E2091FD0DBD08E9AF06E4
:01055900227F
:0602C1008B378A388939F1
:1002C7001205BE2090643090FD7F2812065012055B
:1002D700208F3D120520A907120520AC0712052023
:1002E700AB071205208F407F19120650E9FFE53D45
:1002F7002FFFE433FEEC7583002FFFE5833EFEEB13
:100307002FFFE5833EFEE540B5071FE583B5061AD7
:10031700AF3D893E8B3FAB37AA38A939EC1201357F
:0A032700AB3AAA3BA93CEF120135E6
:0103310022A9
:060332008B378A3889397F
:100338001205D52091643091FD7F281206501205D0
:100348003D8F3D12053DA90712053DAC0712053D3D
:10035800AB0712053D8F407F19120650E9FFE53DB6
:100368002FFFE433FEEC7583002FFFE5833EFEEBA1
:100378002FFFE5833EFEE540B5071FE583B5061A66
:10038800AF3D893E8B3FAB37AA38A939EC1201350E
:0A039800AB3AAA3BA93CEF12013575
:0103A2002238
:03000000020235C4
:0C023500787FE4F6D8FD75814002027C61
:10002600E709F608DFFA8046E709F208DFFA803EBC
:1000360088828C83E709F0A3DFFA8032E309F608A9
:10004600DFFA8078E309F208DFFA807088828C8311
:10005600E309F0A3DFFA806489828A83E0A3F608C5
:10006600DFFA805889828A83E0A3F208DFFA804C9F
:1000760080D280FA80C680D4806980F28033801076
:1000860080A680EA809A80A880DA80E280CA8033DF
:1000960089828A83ECFAE493A3C8C582C8CCC58357
:1000A600CCF0A3C8C582C8CCC583CCDFE9DEE78027
:1000B6000D89828A83E493A3F608DFF9ECFAA9F0A6
:1000C600EDFB2289828A83ECFAE0A3C8C582C8CCFC
:1000D600C583CCF0A3C8C582C8CCC583CCDFEADE15
:1000E600E880DB89828A83E493A3F208DFF980CC77
:1000F60088F0EF60010E4E60C388F0ED2402B40470
:100106000050B9F582EB2402B4040050AF23234516
:06011600822390007673C5
:10011C00BB010689828A83E0225002E722BBFE02E1
:09012C00E32289828A83E4932214
:10013500BB010689828A83F0225002F722BBFE01A9
:02014500F322A3
:10014700F8BB010DE58229F582E5833AF583E8F0EE
:10015700225006E92582C8F622BBFE05E92582C89A
:02016700F22282
:10024100020169E493A3F8E493A34003F68001F269
:1002510008DFF48029E493A3F85407240CC8C333BE
:10026100C4540F4420C8834004F456800146F6DF8D
:10027100E4800B0102040810204080900602E47E15
:10028100019360BCA3FF543F30E509541FFEE49382
:10029100A360010ECF54C025E060A840B8E493A349
:1002A100FAE493A3F8E493A3C8C582C8CAC583CA74
:1002B100F0A3C8C582C8CAC583CADFE9DEE780BE2C
:0106100000E9
:00000001FF
